{
    "contractName": "RevenueTokenManager",
    "abi": [
        {
            "constant": true,
            "inputs": [],
            "name": "totalLockedAmount",
            "outputs": [
                {
                    "name": "",
                    "type": "uint256"
                }
            ],
            "payable": false,
            "stateMutability": "view",
            "type": "function"
        },
        {
            "constant": false,
            "inputs": [
                {
                    "name": "_token",
                    "type": "address"
                }
            ],
            "name": "setToken",
            "outputs": [],
            "payable": false,
            "stateMutability": "nonpayable",
            "type": "function"
        },
        {
            "constant": false,
            "inputs": [
                {
                    "name": "_beneficiary",
                    "type": "address"
                }
            ],
            "name": "setBeneficiary",
            "outputs": [],
            "payable": false,
            "stateMutability": "nonpayable",
            "type": "function"
        },
        {
            "constant": false,
            "inputs": [],
            "name": "triggerSelfDestruction",
            "outputs": [],
            "payable": false,
            "stateMutability": "nonpayable",
            "type": "function"
        },
        {
            "constant": true,
            "inputs": [],
            "name": "selfDestructionDisabled",
            "outputs": [
                {
                    "name": "",
                    "type": "bool"
                }
            ],
            "payable": false,
            "stateMutability": "view",
            "type": "function"
        },
        {
            "constant": true,
            "inputs": [],
            "name": "beneficiary",
            "outputs": [
                {
                    "name": "",
                    "type": "address"
                }
            ],
            "payable": false,
            "stateMutability": "view",
            "type": "function"
        },
        {
            "constant": true,
            "inputs": [],
            "name": "destructor",
            "outputs": [
                {
                    "name": "",
                    "type": "address"
                }
            ],
            "payable": false,
            "stateMutability": "view",
            "type": "function"
        },
        {
            "constant": false,
            "inputs": [
                {
                    "name": "earliestReleaseTimes",
                    "type": "uint256[]"
                },
                {
                    "name": "amounts",
                    "type": "uint256[]"
                },
                {
                    "name": "releaseBlockNumbers",
                    "type": "uint256[]"
                }
            ],
            "name": "defineReleases",
            "outputs": [],
            "payable": false,
            "stateMutability": "nonpayable",
            "type": "function"
        },
        {
            "constant": false,
            "inputs": [
                {
                    "name": "index",
                    "type": "uint256"
                },
                {
                    "name": "blockNumber",
                    "type": "uint256"
                }
            ],
            "name": "setReleaseBlockNumber",
            "outputs": [],
            "payable": false,
            "stateMutability": "nonpayable",
            "type": "function"
        },
        {
            "constant": true,
            "inputs": [],
            "name": "operator",
            "outputs": [
                {
                    "name": "",
                    "type": "address"
                }
            ],
            "payable": false,
            "stateMutability": "view",
            "type": "function"
        },
        {
            "constant": true,
            "inputs": [
                {
                    "name": "",
                    "type": "uint256"
                }
            ],
            "name": "totalReleasedAmountBlocks",
            "outputs": [
                {
                    "name": "",
                    "type": "uint256"
                }
            ],
            "payable": false,
            "stateMutability": "view",
            "type": "function"
        },
        {
            "constant": false,
            "inputs": [],
            "name": "disableSelfDestruction",
            "outputs": [],
            "payable": false,
            "stateMutability": "nonpayable",
            "type": "function"
        },
        {
            "constant": true,
            "inputs": [],
            "name": "executedReleasesCount",
            "outputs": [
                {
                    "name": "",
                    "type": "uint256"
                }
            ],
            "payable": false,
            "stateMutability": "view",
            "type": "function"
        },
        {
            "constant": false,
            "inputs": [
                {
                    "name": "newDeployer",
                    "type": "address"
                }
            ],
            "name": "setDeployer",
            "outputs": [],
            "payable": false,
            "stateMutability": "nonpayable",
            "type": "function"
        },
        {
            "constant": false,
            "inputs": [
                {
                    "name": "newOperator",
                    "type": "address"
                }
            ],
            "name": "setOperator",
            "outputs": [],
            "payable": false,
            "stateMutability": "nonpayable",
            "type": "function"
        },
        {
            "constant": true,
            "inputs": [
                {
                    "name": "",
                    "type": "uint256"
                }
            ],
            "name": "releases",
            "outputs": [
                {
                    "name": "earliestReleaseTime",
                    "type": "uint256"
                },
                {
                    "name": "amount",
                    "type": "uint256"
                },
                {
                    "name": "blockNumber",
                    "type": "uint256"
                },
                {
                    "name": "done",
                    "type": "bool"
                }
            ],
            "payable": false,
            "stateMutability": "view",
            "type": "function"
        },
        {
            "constant": true,
            "inputs": [],
            "name": "releasesCount",
            "outputs": [
                {
                    "name": "",
                    "type": "uint256"
                }
            ],
            "payable": false,
            "stateMutability": "view",
            "type": "function"
        },
        {
            "constant": true,
            "inputs": [],
            "name": "deployer",
            "outputs": [
                {
                    "name": "",
                    "type": "address"
                }
            ],
            "payable": false,
            "stateMutability": "view",
            "type": "function"
        },
        {
            "constant": true,
            "inputs": [
                {
                    "name": "",
                    "type": "uint256"
                }
            ],
            "name": "totalReleasedAmounts",
            "outputs": [
                {
                    "name": "",
                    "type": "uint256"
                }
            ],
            "payable": false,
            "stateMutability": "view",
            "type": "function"
        },
        {
            "constant": true,
            "inputs": [],
            "name": "token",
            "outputs": [
                {
                    "name": "",
                    "type": "address"
                }
            ],
            "payable": false,
            "stateMutability": "view",
            "type": "function"
        },
        {
            "inputs": [
                {
                    "name": "deployer",
                    "type": "address"
                }
            ],
            "payable": false,
            "stateMutability": "nonpayable",
            "type": "constructor"
        },
        {
            "anonymous": false,
            "inputs": [
                {
                    "indexed": false,
                    "name": "token",
                    "type": "address"
                }
            ],
            "name": "SetTokenEvent",
            "type": "event"
        },
        {
            "anonymous": false,
            "inputs": [
                {
                    "indexed": false,
                    "name": "beneficiary",
                    "type": "address"
                }
            ],
            "name": "SetBeneficiaryEvent",
            "type": "event"
        },
        {
            "anonymous": false,
            "inputs": [
                {
                    "indexed": false,
                    "name": "earliestReleaseTime",
                    "type": "uint256"
                },
                {
                    "indexed": false,
                    "name": "amount",
                    "type": "uint256"
                },
                {
                    "indexed": false,
                    "name": "blockNumber",
                    "type": "uint256"
                }
            ],
            "name": "DefineReleaseEvent",
            "type": "event"
        },
        {
            "anonymous": false,
            "inputs": [
                {
                    "indexed": false,
                    "name": "index",
                    "type": "uint256"
                },
                {
                    "indexed": false,
                    "name": "blockNumber",
                    "type": "uint256"
                }
            ],
            "name": "SetReleaseBlockNumberEvent",
            "type": "event"
        },
        {
            "anonymous": false,
            "inputs": [
                {
                    "indexed": false,
                    "name": "index",
                    "type": "uint256"
                },
                {
                    "indexed": false,
                    "name": "blockNumber",
                    "type": "uint256"
                },
                {
                    "indexed": false,
                    "name": "earliestReleaseTime",
                    "type": "uint256"
                },
                {
                    "indexed": false,
                    "name": "actualReleaseTime",
                    "type": "uint256"
                },
                {
                    "indexed": false,
                    "name": "amount",
                    "type": "uint256"
                }
            ],
            "name": "ReleaseEvent",
            "type": "event"
        },
        {
            "anonymous": false,
            "inputs": [
                {
                    "indexed": false,
                    "name": "oldDeployer",
                    "type": "address"
                },
                {
                    "indexed": false,
                    "name": "newDeployer",
                    "type": "address"
                }
            ],
            "name": "SetDeployerEvent",
            "type": "event"
        },
        {
            "anonymous": false,
            "inputs": [
                {
                    "indexed": false,
                    "name": "oldOperator",
                    "type": "address"
                },
                {
                    "indexed": false,
                    "name": "newOperator",
                    "type": "address"
                }
            ],
            "name": "SetOperatorEvent",
            "type": "event"
        },
        {
            "anonymous": false,
            "inputs": [
                {
                    "indexed": false,
                    "name": "wallet",
                    "type": "address"
                }
            ],
            "name": "SelfDestructionDisabledEvent",
            "type": "event"
        },
        {
            "anonymous": false,
            "inputs": [
                {
                    "indexed": false,
                    "name": "wallet",
                    "type": "address"
                }
            ],
            "name": "TriggerSelfDestructionEvent",
            "type": "event"
        },
        {
            "constant": false,
            "inputs": [
                {
                    "name": "index",
                    "type": "uint256"
                }
            ],
            "name": "release",
            "outputs": [],
            "payable": false,
            "stateMutability": "nonpayable",
            "type": "function"
        },
        {
            "constant": true,
            "inputs": [
                {
                    "name": "startBlock",
                    "type": "uint256"
                },
                {
                    "name": "endBlock",
                    "type": "uint256"
                }
            ],
            "name": "releasedAmountBlocksIn",
            "outputs": [
                {
                    "name": "",
                    "type": "uint256"
                }
            ],
            "payable": false,
            "stateMutability": "view",
            "type": "function"
        },
        {
            "constant": true,
            "inputs": [
                {
                    "name": "index",
                    "type": "uint256"
                }
            ],
            "name": "releaseBlockNumbers",
            "outputs": [
                {
                    "name": "",
                    "type": "uint256"
                }
            ],
            "payable": false,
            "stateMutability": "view",
            "type": "function"
        }
    ],
    "bytecode": "0x608060405234801561001057600080fd5b5060405160208061139a8339810160405251808080600160a060020a038116151561003a57600080fd5b600160a060020a03811630141561005057600080fd5b5060008054600160a060020a03909216610100810261010060a860020a031990931692909217905560018054600160a060020a031916909117905550506112fe8061009c6000396000f3006080604052600436106101195763ffffffff60e060020a60003504166305a9f274811461011e578063144fa6d7146101455780631c31f710146101685780632738a112146101895780632f013a001461019e57806337bdc99b146101c757806338af3eed146101df5780634476d23b146102105780634524c0cd146102255780634eddcf5b146102ec578063570ca735146103075780635c35c1ff1461031c57806370327ea11461033457806385a4757e1461034957806392e35ad4146103645780639621473514610379578063b3ab15fb1461039a578063b6a9f40f146103bb578063cffc6233146103fb578063d02764f314610413578063d5f3948814610428578063f7aa74801461043d578063fc0c546a14610455575b600080fd5b34801561012a57600080fd5b5061013361046a565b60408051918252519081900360200190f35b34801561015157600080fd5b50610166600160a060020a0360043516610470565b005b34801561017457600080fd5b50610166600160a060020a0360043516610520565b34801561019557600080fd5b506101666105a4565b3480156101aa57600080fd5b506101b3610606565b604080519115158252519081900360200190f35b3480156101d357600080fd5b5061016660043561060f565b3480156101eb57600080fd5b506101f461063b565b60408051600160a060020a039092168252519081900360200190f35b34801561021c57600080fd5b506101f461064a565b34801561023157600080fd5b506040805160206004803580820135838102808601850190965280855261016695369593946024949385019291829185019084908082843750506040805187358901803560208181028481018201909552818452989b9a998901989297509082019550935083925085019084908082843750506040805187358901803560208181028481018201909552818452989b9a99890198929750908201955093508392508501908490808284375094975061065e9650505050505050565b3480156102f857600080fd5b506101666004356024356108a7565b34801561031357600080fd5b506101f4610955565b34801561032857600080fd5b50610133600435610964565b34801561034057600080fd5b50610166610983565b34801561035557600080fd5b506101336004356024356109e1565b34801561037057600080fd5b50610133610d24565b34801561038557600080fd5b50610166600160a060020a0360043516610d2a565b3480156103a657600080fd5b50610166600160a060020a0360043516610df6565b3480156103c757600080fd5b506103d3600435610eb3565b6040805194855260208501939093528383019190915215156060830152519081900360800190f35b34801561040757600080fd5b50610133600435610eee565b34801561041f57600080fd5b50610133610f18565b34801561043457600080fd5b506101f4610f1e565b34801561044957600080fd5b50610133600435610f32565b34801561046157600080fd5b506101f4610f40565b60055481565b610478610f4f565b151561048357600080fd5b80600160a060020a038116151561049957600080fd5b600160a060020a0381163014156104af57600080fd5b600254600160a060020a0316156104c557600080fd5b60028054600160a060020a031916600160a060020a03848116919091179182905560408051929091168252517f6d8175d5535b8ed95618101b59531eb23efe2c999ffea7c6831918fc088b512b916020908290030190a15050565b610528610f4f565b151561053357600080fd5b80600160a060020a038116151561054957600080fd5b60038054600160a060020a031916600160a060020a03848116919091179182905560408051929091168252517fa269fa1cb7bcf5c01f056e2ab269416779172ccca0613c264c1333c6db01f144916020908290030190a15050565b336105ad61064a565b600160a060020a0316146105c057600080fd5b60005460ff16156105d057600080fd5b6040805133815290517f787a5d936e74f4b564b9153575886059829c78cd9927b1be5e0d976b317ef7369181900360200190a133ff5b60005460ff1681565b600354600160a060020a0316331461062657600080fd5b61062f81610f60565b61063881611088565b50565b600354600160a060020a031681565b6000546101009004600160a060020a031690565b600080610669610f4f565b151561067457600080fd5b835185511461068257600080fd5b82518551101561069157600080fd5b600254600160a060020a031615156106a857600080fd5b600091505b84518210156108a05783828151811015156106c457fe5b602090810290910181015160058054909101908190556002546040805160e060020a6370a0823102815230600482015290519293600160a060020a03909216926370a08231926024808401939192918290030181600087803b15801561072957600080fd5b505af115801561073d573d6000803e3d6000fd5b505050506040513d602081101561075357600080fd5b5051101561076057600080fd5b8251821061076f576000610788565b828281518110151561077d57fe5b906020019060200201515b9050600460806040519081016040528087858151811015156107a657fe5b90602001906020020151815260200186858151811015156107c357fe5b60209081029190910181015182528181018590526000604092830181905284546001808201875595825290829020845160049092020190815590830151938101939093558101516002830155606001516003909101805460ff191691151591909117905584517f7a4b817334cd72c0bcda88d842afe9d164deab0f72ed72c7157b05f9bc3c9b599086908490811061085757fe5b90602001906020020151858481518110151561086f57fe5b60209081029091018101516040805193845291830152818101849052519081900360600190a16001909101906106ad565b5050505050565b600354600160a060020a031633146108be57600080fd5b60048054839081106108cc57fe5b600091825260209091206003600490920201015460ff16156108ed57600080fd5b806004838154811015156108fd57fe5b9060005260206000209060040201600201819055507f7cf19267ac0e3fcfc04da70aa689f851cd659a051bab5a357d0d31085b9430858282604051808381526020018281526020019250505060405180910390a15050565b600154600160a060020a031681565b600880548290811061097257fe5b600091825260209091200154905081565b3361098c61064a565b600160a060020a03161461099f57600080fd5b6000805460ff191660011790556040805133815290517fd5a2a04a775c741c2ca0dc46ea7ce4835190e1aaf1ca018def0e82568ec336169181900360200190a1565b6000808080808587106109f357600080fd5b6006541580610a215750600480546000908110610a0c57fe5b90600052602060002090600402016002015486105b15610a2f5760009450610d1a565b600093505b60065484108015610a64575086600485815481101515610a5057fe5b906000526020600020906004020160020154105b15610a7457600190930192610a34565b6006548410610ac457610abd610a90878963ffffffff6111bf16565b6007600160065403815481101515610aa457fe5b90600052602060002001546111d190919063ffffffff16565b9250610d16565b8315610af357600480546000198601908110610adc57fe5b906000526020600020906004020160020154610af5565b865b9150600484815481101515610b0657fe5b906000526020600020906004020160020154905085811115610b255750845b610b35818863ffffffff6111bf16565b90508015610b9757610b92610b7383600487815481101515610b5357fe5b9060005260206000209060040201600201546111bf90919063ffffffff16565b610b8683600888815481101515610aa457fe5b9063ffffffff6111fc16565b610b9a565b60005b60019094019392505b60065484108015610bd3575085600485815481101515610bbf57fe5b906000526020600020906004020160020154105b15610c1157610c04600885815481101515610bea57fe5b90600052602060002001548461121390919063ffffffff16565b6001909401939250610ba3565b6006548410610c6557610abd610c58610a906004600160065403815481101515610c3757fe5b906000526020600020906004020160020154896111bf90919063ffffffff16565b849063ffffffff61121316565b85600460018603815481101515610c7857fe5b9060005260206000209060040201600201541015610d1657610d13610c58610ccc600460018803815481101515610cab57fe5b906000526020600020906004020160020154600488815481101515610b5357fe5b610b86610d05600460018a03815481101515610ce457fe5b9060005260206000209060040201600201548b6111bf90919063ffffffff16565b600880548a908110610aa457fe5b92505b8294505b5050505092915050565b60065481565b6000610d34611222565b1515610d3f57600080fd5b81600160a060020a0381161515610d5557600080fd5b600160a060020a038116301415610d6b57600080fd5b600054600160a060020a038481166101009092041614610df15760008054600160a060020a0385811661010081810261010060a860020a0319851617909455604080519490930491909116808452602084019190915281519094507f977e5fa58e458501775e0008d275006294c5249e3c08d1d0e3a9f3acad14f6e49281900390910190a15b505050565b6000610e00610f4f565b1515610e0b57600080fd5b81600160a060020a0381161515610e2157600080fd5b600160a060020a038116301415610e3757600080fd5b600154600160a060020a03848116911614610df15760018054600160a060020a03858116600160a060020a0319831681179093556040805191909216808252602082019390935281519294507f9f611b789425d0d5b90b920f1b2852907dd865c80074a30b1629aaa041d1812c929081900390910190a1505050565b6004805482908110610ec157fe5b60009182526020909120600490910201805460018201546002830154600390930154919350919060ff1684565b6000600482815481101515610eff57fe5b9060005260206000209060040201600201549050919050565b60045490565b6000546101009004600160a060020a031681565b600780548290811061097257fe5b600254600160a060020a031681565b600154600160a060020a0316331490565b600354600090600160a060020a03163314610f7a57600080fd5b6004805483908110610f8857fe5b9060005260206000209060040201905080600101546000101515610fab57600080fd5b600381015460ff1615610fbd57600080fd5b8054421015610fcb57600080fd5b60038101805460ff1916600117905560028101541515610fec574360028201555b6006805460019081019091558101805460058054919091039055600354905460025461102c92600160a060020a039182169291169063ffffffff61123816565b600281015481546001830154604080518681526020810194909452838101929092524260608401526080830152517f192a2424596ca5fd763237e85156a3cca5a544ec2de91fcce52165f11430c9fb9181900360a00190a15050565b80600010156111525760076004828154811015156110a257fe5b9060005260206000209060040201600101546007600184038154811015156110c657fe5b600091825260208083209091015484546001810186559483529120910191015560048054600891611137916111259190600019860190811061110457fe5b906000526020600020906004020160020154600485815481101515610b5357fe5b600780546000198601908110610aa457fe5b81546001810183556000928352602090922090910155610638565b600760048281548110151561116357fe5b600091825260208083206001600490930201820154845480840186559484529083209093019290925560088054928301815581527ff3f7a9fe364faab93b216da50a3214154f22a0a2b415b23a84c8169e8b636ee39091015550565b6000828211156111cb57fe5b50900390565b60008282028315806111ed57508284828115156111ea57fe5b04145b15156111f557fe5b9392505050565b600080828481151561120a57fe5b04949350505050565b6000828201838110156111f557fe5b6000546101009004600160a060020a0316331490565b82600160a060020a031663a9059cbb83836040518363ffffffff1660e060020a0281526004018083600160a060020a0316600160a060020a0316815260200182815260200192505050602060405180830381600087803b15801561129b57600080fd5b505af11580156112af573d6000803e3d6000fd5b505050506040513d60208110156112c557600080fd5b50511515610df157600080fd00a165627a7a7230582060ee1c67176e85c1540931a4255234bb1612a02a412f8b82c4a0934102e5311d0029",
    "source": "/*\n * Hubii Nahmii\n *\n * Compliant with the Hubii Nahmii specification v0.12.\n *\n * Copyright (C) 2017-2018 Hubii AS\n */\n\npragma solidity ^0.4.25;\n\nimport {TokenMultiTimelock} from \"./TokenMultiTimelock.sol\";\nimport {RevenueToken} from \"./RevenueToken.sol\";\nimport {SafeMathUintLib} from \"./SafeMathUintLib.sol\";\n\ncontract RevenueTokenManager is TokenMultiTimelock {\n    using SafeMathUintLib for uint256;\n\n    //\n    // Variables\n    // -----------------------------------------------------------------------------------------------------------------\n    uint256[] public totalReleasedAmounts;\n    uint256[] public totalReleasedAmountBlocks;\n\n    //\n    // Constructor\n    // -----------------------------------------------------------------------------------------------------------------\n    constructor(address deployer)\n    public\n    TokenMultiTimelock(deployer)\n    {\n    }\n\n    //\n    // Functions\n    // -----------------------------------------------------------------------------------------------------------------\n    /// @notice Transfers tokens held in the indicated release to beneficiary\n    /// and update amount blocks\n    /// @param index The index of the release\n    function release(uint256 index)\n    public\n    onlyBeneficiary\n    {\n        // Call release of multi timelock\n        super.release(index);\n\n        // Add amount blocks\n        _addAmountBlocks(index);\n    }\n\n    /// @notice Calculate the released amount blocks, i.e. the area under the curve (AUC) of\n    /// release amount as function of block number\n    /// @param startBlock The start block number considered\n    /// @param endBlock The end block number considered\n    /// @return The calculated AUC\n    function releasedAmountBlocksIn(uint256 startBlock, uint256 endBlock)\n    public\n    view\n    returns (uint256)\n    {\n        require(startBlock < endBlock);\n\n        if (executedReleasesCount == 0 || endBlock < releases[0].blockNumber)\n            return 0;\n\n        uint256 i = 0;\n        while (i < executedReleasesCount && releases[i].blockNumber < startBlock)\n            i++;\n\n        uint256 r;\n        if (i >= executedReleasesCount)\n            r = totalReleasedAmounts[executedReleasesCount - 1].mul(endBlock.sub(startBlock));\n\n        else {\n            uint256 l = (i == 0) ? startBlock : releases[i - 1].blockNumber;\n\n            uint256 h = releases[i].blockNumber;\n            if (h > endBlock)\n                h = endBlock;\n\n            h = h.sub(startBlock);\n            r = (h == 0) ? 0 : totalReleasedAmountBlocks[i].mul(h).div(releases[i].blockNumber.sub(l));\n            i++;\n\n            while (i < executedReleasesCount && releases[i].blockNumber < endBlock) {\n                r = r.add(totalReleasedAmountBlocks[i]);\n                i++;\n            }\n\n            if (i >= executedReleasesCount)\n                r = r.add(\n                    totalReleasedAmounts[executedReleasesCount - 1].mul(\n                        endBlock.sub(releases[executedReleasesCount - 1].blockNumber)\n                    )\n                );\n\n            else if (releases[i - 1].blockNumber < endBlock)\n                r = r.add(\n                    totalReleasedAmountBlocks[i].mul(\n                        endBlock.sub(releases[i - 1].blockNumber)\n                    ).div(\n                        releases[i].blockNumber.sub(releases[i - 1].blockNumber)\n                    )\n                );\n        }\n\n        return r;\n    }\n\n    /// @notice Get the block number of the release\n    /// @param index The index of the release\n    /// @return The block number of the release;\n    function releaseBlockNumbers(uint256 index)\n    public\n    view\n    returns (uint256)\n    {\n        return releases[index].blockNumber;\n    }\n\n    //\n    // Private functions\n    // -----------------------------------------------------------------------------------------------------------------\n    function _addAmountBlocks(uint256 index)\n    private\n    {\n        // Push total amount released and total released amount blocks\n        if (0 < index) {\n            totalReleasedAmounts.push(\n                totalReleasedAmounts[index - 1] + releases[index].amount\n            );\n            totalReleasedAmountBlocks.push(\n                totalReleasedAmounts[index - 1].mul(\n                    releases[index].blockNumber.sub(releases[index - 1].blockNumber)\n                )\n            );\n\n        } else {\n            totalReleasedAmounts.push(releases[index].amount);\n            totalReleasedAmountBlocks.push(0);\n        }\n    }\n}",
    "sourcePath": "/opt/buildagent/work/855e104608380c36/contracts/RevenueTokenManager.sol",
    "compiler": {
        "name": "solc",
        "version": "0.4.25+commit.59dbf8f1.Emscripten.clang"
    },
    "schemaVersion": "2.0.1",
    "updatedAt": "2019-01-31T11:28:29.963Z"
}