{
    "contractName": "RevenueTokenManager",
    "abi": [
        {
            "constant": true,
            "inputs": [],
            "name": "totalLockedAmount",
            "outputs": [
                {
                    "name": "",
                    "type": "uint256"
                }
            ],
            "payable": false,
            "stateMutability": "view",
            "type": "function"
        },
        {
            "constant": false,
            "inputs": [
                {
                    "name": "_token",
                    "type": "address"
                }
            ],
            "name": "setToken",
            "outputs": [],
            "payable": false,
            "stateMutability": "nonpayable",
            "type": "function"
        },
        {
            "constant": false,
            "inputs": [
                {
                    "name": "_beneficiary",
                    "type": "address"
                }
            ],
            "name": "setBeneficiary",
            "outputs": [],
            "payable": false,
            "stateMutability": "nonpayable",
            "type": "function"
        },
        {
            "constant": false,
            "inputs": [],
            "name": "triggerSelfDestruction",
            "outputs": [],
            "payable": false,
            "stateMutability": "nonpayable",
            "type": "function"
        },
        {
            "constant": true,
            "inputs": [],
            "name": "selfDestructionDisabled",
            "outputs": [
                {
                    "name": "",
                    "type": "bool"
                }
            ],
            "payable": false,
            "stateMutability": "view",
            "type": "function"
        },
        {
            "constant": true,
            "inputs": [],
            "name": "beneficiary",
            "outputs": [
                {
                    "name": "",
                    "type": "address"
                }
            ],
            "payable": false,
            "stateMutability": "view",
            "type": "function"
        },
        {
            "constant": true,
            "inputs": [],
            "name": "destructor",
            "outputs": [
                {
                    "name": "",
                    "type": "address"
                }
            ],
            "payable": false,
            "stateMutability": "view",
            "type": "function"
        },
        {
            "constant": false,
            "inputs": [
                {
                    "name": "earliestReleaseTimes",
                    "type": "uint256[]"
                },
                {
                    "name": "amounts",
                    "type": "uint256[]"
                },
                {
                    "name": "releaseBlockNumbers",
                    "type": "uint256[]"
                }
            ],
            "name": "defineReleases",
            "outputs": [],
            "payable": false,
            "stateMutability": "nonpayable",
            "type": "function"
        },
        {
            "constant": false,
            "inputs": [
                {
                    "name": "index",
                    "type": "uint256"
                },
                {
                    "name": "blockNumber",
                    "type": "uint256"
                }
            ],
            "name": "setReleaseBlockNumber",
            "outputs": [],
            "payable": false,
            "stateMutability": "nonpayable",
            "type": "function"
        },
        {
            "constant": true,
            "inputs": [],
            "name": "operator",
            "outputs": [
                {
                    "name": "",
                    "type": "address"
                }
            ],
            "payable": false,
            "stateMutability": "view",
            "type": "function"
        },
        {
            "constant": true,
            "inputs": [
                {
                    "name": "",
                    "type": "uint256"
                }
            ],
            "name": "totalReleasedAmountBlocks",
            "outputs": [
                {
                    "name": "",
                    "type": "uint256"
                }
            ],
            "payable": false,
            "stateMutability": "view",
            "type": "function"
        },
        {
            "constant": false,
            "inputs": [],
            "name": "disableSelfDestruction",
            "outputs": [],
            "payable": false,
            "stateMutability": "nonpayable",
            "type": "function"
        },
        {
            "constant": true,
            "inputs": [],
            "name": "executedReleasesCount",
            "outputs": [
                {
                    "name": "",
                    "type": "uint256"
                }
            ],
            "payable": false,
            "stateMutability": "view",
            "type": "function"
        },
        {
            "constant": false,
            "inputs": [
                {
                    "name": "newDeployer",
                    "type": "address"
                }
            ],
            "name": "setDeployer",
            "outputs": [],
            "payable": false,
            "stateMutability": "nonpayable",
            "type": "function"
        },
        {
            "constant": false,
            "inputs": [
                {
                    "name": "newOperator",
                    "type": "address"
                }
            ],
            "name": "setOperator",
            "outputs": [],
            "payable": false,
            "stateMutability": "nonpayable",
            "type": "function"
        },
        {
            "constant": true,
            "inputs": [
                {
                    "name": "",
                    "type": "uint256"
                }
            ],
            "name": "releases",
            "outputs": [
                {
                    "name": "earliestReleaseTime",
                    "type": "uint256"
                },
                {
                    "name": "amount",
                    "type": "uint256"
                },
                {
                    "name": "blockNumber",
                    "type": "uint256"
                },
                {
                    "name": "done",
                    "type": "bool"
                }
            ],
            "payable": false,
            "stateMutability": "view",
            "type": "function"
        },
        {
            "constant": true,
            "inputs": [
                {
                    "name": "",
                    "type": "uint256"
                }
            ],
            "name": "releaseBlockNumbers",
            "outputs": [
                {
                    "name": "",
                    "type": "uint256"
                }
            ],
            "payable": false,
            "stateMutability": "view",
            "type": "function"
        },
        {
            "constant": true,
            "inputs": [],
            "name": "releasesCount",
            "outputs": [
                {
                    "name": "",
                    "type": "uint256"
                }
            ],
            "payable": false,
            "stateMutability": "view",
            "type": "function"
        },
        {
            "constant": true,
            "inputs": [],
            "name": "deployer",
            "outputs": [
                {
                    "name": "",
                    "type": "address"
                }
            ],
            "payable": false,
            "stateMutability": "view",
            "type": "function"
        },
        {
            "constant": true,
            "inputs": [
                {
                    "name": "",
                    "type": "uint256"
                }
            ],
            "name": "totalReleasedAmounts",
            "outputs": [
                {
                    "name": "",
                    "type": "uint256"
                }
            ],
            "payable": false,
            "stateMutability": "view",
            "type": "function"
        },
        {
            "constant": true,
            "inputs": [],
            "name": "token",
            "outputs": [
                {
                    "name": "",
                    "type": "address"
                }
            ],
            "payable": false,
            "stateMutability": "view",
            "type": "function"
        },
        {
            "inputs": [
                {
                    "name": "deployer",
                    "type": "address"
                }
            ],
            "payable": false,
            "stateMutability": "nonpayable",
            "type": "constructor"
        },
        {
            "anonymous": false,
            "inputs": [
                {
                    "indexed": false,
                    "name": "token",
                    "type": "address"
                }
            ],
            "name": "SetTokenEvent",
            "type": "event"
        },
        {
            "anonymous": false,
            "inputs": [
                {
                    "indexed": false,
                    "name": "beneficiary",
                    "type": "address"
                }
            ],
            "name": "SetBeneficiaryEvent",
            "type": "event"
        },
        {
            "anonymous": false,
            "inputs": [
                {
                    "indexed": false,
                    "name": "earliestReleaseTime",
                    "type": "uint256"
                },
                {
                    "indexed": false,
                    "name": "amount",
                    "type": "uint256"
                },
                {
                    "indexed": false,
                    "name": "blockNumber",
                    "type": "uint256"
                }
            ],
            "name": "DefineReleaseEvent",
            "type": "event"
        },
        {
            "anonymous": false,
            "inputs": [
                {
                    "indexed": false,
                    "name": "index",
                    "type": "uint256"
                },
                {
                    "indexed": false,
                    "name": "blockNumber",
                    "type": "uint256"
                }
            ],
            "name": "SetReleaseBlockNumberEvent",
            "type": "event"
        },
        {
            "anonymous": false,
            "inputs": [
                {
                    "indexed": false,
                    "name": "index",
                    "type": "uint256"
                },
                {
                    "indexed": false,
                    "name": "blockNumber",
                    "type": "uint256"
                },
                {
                    "indexed": false,
                    "name": "earliestReleaseTime",
                    "type": "uint256"
                },
                {
                    "indexed": false,
                    "name": "actualReleaseTime",
                    "type": "uint256"
                },
                {
                    "indexed": false,
                    "name": "amount",
                    "type": "uint256"
                }
            ],
            "name": "ReleaseEvent",
            "type": "event"
        },
        {
            "anonymous": false,
            "inputs": [
                {
                    "indexed": false,
                    "name": "oldDeployer",
                    "type": "address"
                },
                {
                    "indexed": false,
                    "name": "newDeployer",
                    "type": "address"
                }
            ],
            "name": "SetDeployerEvent",
            "type": "event"
        },
        {
            "anonymous": false,
            "inputs": [
                {
                    "indexed": false,
                    "name": "oldOperator",
                    "type": "address"
                },
                {
                    "indexed": false,
                    "name": "newOperator",
                    "type": "address"
                }
            ],
            "name": "SetOperatorEvent",
            "type": "event"
        },
        {
            "anonymous": false,
            "inputs": [
                {
                    "indexed": false,
                    "name": "wallet",
                    "type": "address"
                }
            ],
            "name": "SelfDestructionDisabledEvent",
            "type": "event"
        },
        {
            "anonymous": false,
            "inputs": [
                {
                    "indexed": false,
                    "name": "wallet",
                    "type": "address"
                }
            ],
            "name": "TriggerSelfDestructionEvent",
            "type": "event"
        },
        {
            "constant": false,
            "inputs": [
                {
                    "name": "index",
                    "type": "uint256"
                }
            ],
            "name": "release",
            "outputs": [],
            "payable": false,
            "stateMutability": "nonpayable",
            "type": "function"
        },
        {
            "constant": true,
            "inputs": [
                {
                    "name": "startBlock",
                    "type": "uint256"
                },
                {
                    "name": "endBlock",
                    "type": "uint256"
                }
            ],
            "name": "releasedAmountBlocksIn",
            "outputs": [
                {
                    "name": "",
                    "type": "uint256"
                }
            ],
            "payable": false,
            "stateMutability": "view",
            "type": "function"
        }
    ],
    "bytecode": "0x608060405234801561001057600080fd5b506040516020806113928339810160405251808080600160a060020a038116151561003a57600080fd5b600160a060020a03811630141561005057600080fd5b5060008054600160a060020a03909216610100810261010060a860020a031990931692909217905560018054600160a060020a031916909117905550506112f68061009c6000396000f3006080604052600436106101195763ffffffff60e060020a60003504166305a9f274811461011e578063144fa6d7146101455780631c31f710146101685780632738a112146101895780632f013a001461019e57806337bdc99b146101c757806338af3eed146101df5780634476d23b146102105780634524c0cd146102255780634eddcf5b146102ec578063570ca735146103075780635c35c1ff1461031c57806370327ea11461033457806385a4757e1461034957806392e35ad4146103645780639621473514610379578063b3ab15fb1461039a578063b6a9f40f146103bb578063cffc6233146103fb578063d02764f314610413578063d5f3948814610428578063f7aa74801461043d578063fc0c546a14610455575b600080fd5b34801561012a57600080fd5b5061013361046a565b60408051918252519081900360200190f35b34801561015157600080fd5b50610166600160a060020a0360043516610470565b005b34801561017457600080fd5b50610166600160a060020a0360043516610520565b34801561019557600080fd5b506101666105a4565b3480156101aa57600080fd5b506101b3610606565b604080519115158252519081900360200190f35b3480156101d357600080fd5b5061016660043561060f565b3480156101eb57600080fd5b506101f461063b565b60408051600160a060020a039092168252519081900360200190f35b34801561021c57600080fd5b506101f461064a565b34801561023157600080fd5b506040805160206004803580820135838102808601850190965280855261016695369593946024949385019291829185019084908082843750506040805187358901803560208181028481018201909552818452989b9a998901989297509082019550935083925085019084908082843750506040805187358901803560208181028481018201909552818452989b9a99890198929750908201955093508392508501908490808284375094975061065e9650505050505050565b3480156102f857600080fd5b506101666004356024356108a7565b34801561031357600080fd5b506101f4610955565b34801561032857600080fd5b50610133600435610964565b34801561034057600080fd5b50610166610983565b34801561035557600080fd5b506101336004356024356109e1565b34801561037057600080fd5b50610133610ce2565b34801561038557600080fd5b50610166600160a060020a0360043516610ce8565b3480156103a657600080fd5b50610166600160a060020a0360043516610db4565b3480156103c757600080fd5b506103d3600435610e71565b6040805194855260208501939093528383019190915215156060830152519081900360800190f35b34801561040757600080fd5b50610133600435610eac565b34801561041f57600080fd5b50610133610eba565b34801561043457600080fd5b506101f4610ec0565b34801561044957600080fd5b50610133600435610ed4565b34801561046157600080fd5b506101f4610ee2565b60055481565b610478610ef1565b151561048357600080fd5b80600160a060020a038116151561049957600080fd5b600160a060020a0381163014156104af57600080fd5b600254600160a060020a0316156104c557600080fd5b60028054600160a060020a031916600160a060020a03848116919091179182905560408051929091168252517f6d8175d5535b8ed95618101b59531eb23efe2c999ffea7c6831918fc088b512b916020908290030190a15050565b610528610ef1565b151561053357600080fd5b80600160a060020a038116151561054957600080fd5b60038054600160a060020a031916600160a060020a03848116919091179182905560408051929091168252517fa269fa1cb7bcf5c01f056e2ab269416779172ccca0613c264c1333c6db01f144916020908290030190a15050565b336105ad61064a565b600160a060020a0316146105c057600080fd5b60005460ff16156105d057600080fd5b6040805133815290517f787a5d936e74f4b564b9153575886059829c78cd9927b1be5e0d976b317ef7369181900360200190a133ff5b60005460ff1681565b600354600160a060020a0316331461062657600080fd5b61062f81610f02565b61063881611096565b50565b600354600160a060020a031681565b6000546101009004600160a060020a031690565b600080610669610ef1565b151561067457600080fd5b835185511461068257600080fd5b82518551101561069157600080fd5b600254600160a060020a031615156106a857600080fd5b600091505b84518210156108a05783828151811015156106c457fe5b602090810290910181015160058054909101908190556002546040805160e060020a6370a0823102815230600482015290519293600160a060020a03909216926370a08231926024808401939192918290030181600087803b15801561072957600080fd5b505af115801561073d573d6000803e3d6000fd5b505050506040513d602081101561075357600080fd5b5051101561076057600080fd5b8251821061076f576000610788565b828281518110151561077d57fe5b906020019060200201515b9050600460806040519081016040528087858151811015156107a657fe5b90602001906020020151815260200186858151811015156107c357fe5b60209081029190910181015182528181018590526000604092830181905284546001808201875595825290829020845160049092020190815590830151938101939093558101516002830155606001516003909101805460ff191691151591909117905584517f7a4b817334cd72c0bcda88d842afe9d164deab0f72ed72c7157b05f9bc3c9b599086908490811061085757fe5b90602001906020020151858481518110151561086f57fe5b60209081029091018101516040805193845291830152818101849052519081900360600190a16001909101906106ad565b5050505050565b600354600160a060020a031633146108be57600080fd5b60048054839081106108cc57fe5b600091825260209091206003600490920201015460ff16156108ed57600080fd5b806004838154811015156108fd57fe5b9060005260206000209060040201600201819055507f7cf19267ac0e3fcfc04da70aa689f851cd659a051bab5a357d0d31085b9430858282604051808381526020018281526020019250505060405180910390a15050565b600154600160a060020a031681565b600980548290811061097257fe5b600091825260209091200154905081565b3361098c61064a565b600160a060020a03161461099f57600080fd5b6000805460ff191660011790556040805133815290517fd5a2a04a775c741c2ca0dc46ea7ce4835190e1aaf1ca018def0e82568ec336169181900360200190a1565b6000808080808587106109f357600080fd5b6007541580610a1a5750600780546000908110610a0c57fe5b906000526020600020015486105b15610a285760009450610cd8565b600093505b60075484108015610a56575086600785815481101515610a4957fe5b9060005260206000200154105b15610a6657600190930192610a2d565b6007548410610ab857610ab1610a82878963ffffffff6111b716565b60075460088054909160001901908110610a9857fe5b90600052602060002001546111c990919063ffffffff16565b9250610cd4565b8315610ae057600780546000198601908110610ad057fe5b9060005260206000200154610ae2565b865b9150600784815481101515610af357fe5b9060005260206000200154905085811115610b0b5750845b610b1b818863ffffffff6111b716565b90508015610b7657610b71610b5283600787815481101515610b3957fe5b90600052602060002001546111b790919063ffffffff16565b610b6583600988815481101515610a9857fe5b9063ffffffff6111f416565b610b79565b60005b60019094019392505b60075484108015610bab575085600785815481101515610b9e57fe5b9060005260206000200154105b15610be957610bdc600985815481101515610bc257fe5b90600052602060002001548461120b90919063ffffffff16565b6001909401939250610b82565b6007548410610c385760078054610ab191610c2b91610a8291906000198101908110610c1157fe5b9060005260206000200154896111b790919063ffffffff16565b849063ffffffff61120b16565b85600760018603815481101515610c4b57fe5b90600052602060002001541015610cd457610cd1610c2b610c91600760018803815481101515610c7757fe5b9060005260206000200154600788815481101515610b3957fe5b610b65610cc3600760018a03815481101515610ca957fe5b90600052602060002001548b6111b790919063ffffffff16565b600980548a908110610a9857fe5b92505b8294505b5050505092915050565b60065481565b6000610cf261121a565b1515610cfd57600080fd5b81600160a060020a0381161515610d1357600080fd5b600160a060020a038116301415610d2957600080fd5b600054600160a060020a038481166101009092041614610daf5760008054600160a060020a0385811661010081810261010060a860020a0319851617909455604080519490930491909116808452602084019190915281519094507f977e5fa58e458501775e0008d275006294c5249e3c08d1d0e3a9f3acad14f6e49281900390910190a15b505050565b6000610dbe610ef1565b1515610dc957600080fd5b81600160a060020a0381161515610ddf57600080fd5b600160a060020a038116301415610df557600080fd5b600154600160a060020a03848116911614610daf5760018054600160a060020a03858116600160a060020a0319831681179093556040805191909216808252602082019390935281519294507f9f611b789425d0d5b90b920f1b2852907dd865c80074a30b1629aaa041d1812c929081900390910190a1505050565b6004805482908110610e7f57fe5b60009182526020909120600490910201805460018201546002830154600390930154919350919060ff1684565b600780548290811061097257fe5b60045490565b6000546101009004600160a060020a031681565b600880548290811061097257fe5b600254600160a060020a031681565b600154600160a060020a0316331490565b6000600482815481101515610f1357fe5b906000526020600020906004020160020154600010610f325743610f53565b6004805483908110610f4057fe5b9060005260206000209060040201600201545b90506008600483815481101515610f6657fe5b600091825260209091206001600490920201015460085415610fa457600880546000198101908110610f9457fe5b9060005260206000200154610fa7565b60005b825460018101845560009384526020842092909101910155600654111561102d576009611012610ffe6007600160065403815481101515610fe457fe5b9060005260206000200154846111b790919063ffffffff16565b6008600160065403815481101515610a9857fe5b81546001810183556000928352602090922090910155611060565b6009805460018101825560009182527f6e1540171b6c0c960b71a7020d9f60077f6af931a8bbf590da0223dacf75c7af01555b600780546001810182556000919091527fa66cc928b5edb82af9bd49922954155ab7b0942694bea4ce44661d9a8736c688015550565b6003546000908190600160a060020a031633146110b257600080fd5b60048054849081106110c057fe5b60009182526020909120600490910201600381015490925060ff16156110e557600080fd5b81544210156110f357600080fd5b6003808301805460ff19166001908117909155600680548201905583018054600580549190910390559054905460025461114192600160a060020a039182169291169063ffffffff61123016565b81600201546000106111535743611159565b81600201545b825460018401546040805187815260208101859052808201939093524260608401526080830191909152519192507f192a2424596ca5fd763237e85156a3cca5a544ec2de91fcce52165f11430c9fb919081900360a00190a1505050565b6000828211156111c357fe5b50900390565b60008282028315806111e557508284828115156111e257fe5b04145b15156111ed57fe5b9392505050565b600080828481151561120257fe5b04949350505050565b6000828201838110156111ed57fe5b6000546101009004600160a060020a0316331490565b82600160a060020a031663a9059cbb83836040518363ffffffff1660e060020a0281526004018083600160a060020a0316600160a060020a0316815260200182815260200192505050602060405180830381600087803b15801561129357600080fd5b505af11580156112a7573d6000803e3d6000fd5b505050506040513d60208110156112bd57600080fd5b50511515610daf57600080fd00a165627a7a72305820ae8bc66a34a04f378d1e26a3848d1754ae5facbb7384e5530e143cca5e3d34260029",
    "source": "/*\n * Hubii Nahmii\n *\n * Compliant with the Hubii Nahmii specification v0.12.\n *\n * Copyright (C) 2017-2018 Hubii AS\n */\n\npragma solidity ^0.4.25;\n\nimport {TokenMultiTimelock} from \"./TokenMultiTimelock.sol\";\nimport {RevenueToken} from \"./RevenueToken.sol\";\nimport {SafeMathUintLib} from \"./SafeMathUintLib.sol\";\n\ncontract RevenueTokenManager is TokenMultiTimelock {\n    using SafeMathUintLib for uint256;\n\n    //\n    // Variables\n    // -----------------------------------------------------------------------------------------------------------------\n    uint256[] public releaseBlockNumbers;\n    uint256[] public totalReleasedAmounts;\n    uint256[] public totalReleasedAmountBlocks;\n\n    //\n    // Constructor\n    // -----------------------------------------------------------------------------------------------------------------\n    constructor(address deployer)\n    public\n    TokenMultiTimelock(deployer)\n    {\n    }\n\n    //\n    // Functions\n    // -----------------------------------------------------------------------------------------------------------------\n    /// @notice Transfers tokens held in the indicated release to beneficiary\n    /// and update amount blocks\n    /// @param index The index of the release\n    function release(uint256 index)\n    public\n    onlyBeneficiary\n    {\n        // Add amount blocks\n        _addAmountBlocks(index);\n\n        // Call release of multi timelock\n        super.release(index);\n    }\n\n    /// @notice Calculate the released amount blocks, i.e. the area under the curve (AUC) of\n    /// release amount as function of block number\n    /// @param startBlock The start block number considered\n    /// @param endBlock The end block number considered\n    /// @return The calculated AUC\n    function releasedAmountBlocksIn(uint256 startBlock, uint256 endBlock)\n    public\n    view\n    returns (uint256)\n    {\n        require(startBlock < endBlock);\n\n        if (releaseBlockNumbers.length == 0 || endBlock < releaseBlockNumbers[0])\n            return 0;\n\n        uint256 i = 0;\n        while (i < releaseBlockNumbers.length && releaseBlockNumbers[i] < startBlock)\n            i++;\n\n        uint256 r;\n        if (i >= releaseBlockNumbers.length)\n            r = totalReleasedAmounts[releaseBlockNumbers.length - 1].mul(endBlock.sub(startBlock));\n\n        else {\n            uint256 l = (i == 0) ? startBlock : releaseBlockNumbers[i - 1];\n\n            uint256 h = releaseBlockNumbers[i];\n            if (h > endBlock)\n                h = endBlock;\n\n            h = h.sub(startBlock);\n            r = (h == 0) ? 0 : totalReleasedAmountBlocks[i].mul(h).div(releaseBlockNumbers[i].sub(l));\n            i++;\n\n            while (i < releaseBlockNumbers.length && releaseBlockNumbers[i] < endBlock) {\n                r = r.add(totalReleasedAmountBlocks[i]);\n                i++;\n            }\n\n            if (i >= releaseBlockNumbers.length)\n                r = r.add(\n                    totalReleasedAmounts[releaseBlockNumbers.length - 1].mul(\n                        endBlock.sub(releaseBlockNumbers[releaseBlockNumbers.length - 1])\n                    )\n                );\n\n            else if (releaseBlockNumbers[i - 1] < endBlock)\n                r = r.add(\n                    totalReleasedAmountBlocks[i].mul(\n                        endBlock.sub(releaseBlockNumbers[i - 1])\n                    ).div(\n                        releaseBlockNumbers[i].sub(releaseBlockNumbers[i - 1])\n                    )\n                );\n        }\n\n        return r;\n    }\n\n    //\n    // Private functions\n    // -----------------------------------------------------------------------------------------------------------------\n    function _addAmountBlocks(uint256 index)\n    private\n    {\n        // Use block number defined in release if it is non-null\n        uint256 blockNumber = 0 < releases[index].blockNumber ? releases[index].blockNumber : block.number;\n\n        // Store the new total amount released by adding this release' amount to\n        // previous total amount\n        totalReleasedAmounts.push(\n            (0 == totalReleasedAmounts.length ? 0 : totalReleasedAmounts[totalReleasedAmounts.length - 1])\n            + releases[index].amount\n        );\n\n        // Add to total released amount blocks\n        if (0 < executedReleasesCount)\n            totalReleasedAmountBlocks.push(\n                totalReleasedAmounts[executedReleasesCount - 1].mul(\n                    blockNumber.sub(releaseBlockNumbers[executedReleasesCount - 1])\n                )\n            );\n        else\n            totalReleasedAmountBlocks.push(0);\n\n        // Store the block number of the release\n        releaseBlockNumbers.push(blockNumber);\n    }\n}",
    "sourcePath": "/opt/buildagent/work/855e104608380c36/contracts/RevenueTokenManager.sol",
    "compiler": {
        "name": "solc",
        "version": "0.4.25+commit.59dbf8f1.Emscripten.clang"
    },
    "schemaVersion": "2.0.1",
    "updatedAt": "2019-01-12T01:11:28.801Z"
}